S01F00004F6E2D64656D616E642D547261666669632D6C696768742E7372656381
S11300000C942A000C94E2000C943C000C943C00E8
S11300100C943C000C943C000C943C000C943C006C
S11300200C943C000C943C000C943C000C943C005C
S11300300C943C000C943C000C943C000C943C004C
S11300400C943C000C943C000C943C000C943C003C
S11300500C943C0011241FBECFE5D8E0DEBFCDBF19
S113006020E0A0E6B0E001C01D92A336B207E1F79C
S11300700E942D020C9466020C940000CF93DF932F
S113008062E080E00E94CF018130B9F404C00E9494
S11300905302219602C0C0E0D0E0CA30D105BCF3BF
S11300A00E943E0140E062E081E00E94110140E0D4
S11300B062E080E00E94110178C060E080E00E946C
S11300C0CF0181110AC061E00E94CF018130B1F5F6
S11300D060E00E94CF01811131C041E060E081E025
S11300E00E9411010E94190140E060E080E00E943A
S11300F0110141E062E080E00E94110140E060E013
S113010081E00E94110141E062E081E00E9411015E
S1130110C0E0D0E003C00E9453022196CA30D1054A
S1130120D4F30E94190140E062E080E00E941101D2
S113013040E062E081E00E94110137C060E080E0AD
S11301400E94CF01811131C060E081E00E94CF01A3
S1130150813059F50E94190141E062E080E00E947B
S1130160110140E060E081E00E94110141E062E0A1
S113017081E00E94110140E060E080E00E941101F2
S1130180C0E0D0E003C00E9453022196CA30D105DA
S1130190D4F30E94190140E062E081E00E94110161
S11301A040E062E080E00E94110141E060E081E013
S11301B00E94110141E060E080E00E941101DF91A2
S11301C0CF9108951F920F920FB60F9211242F937F
S11301D03F934F935F936F937F938F939F93AF93CB
S11301E0BF93EF93FF930E94530262E083E00E9467
S11301F00E01811102C00E943E00FF91EF91BF9158
S1130200AF919F918F917F916F915F914F913F91AA
S11302102F910F900FBE0F901F9018950E94CF0141
S113022008950E945901833011F481E0089580E01B
S113023008951DC041E061E080E00E94110141E0A9
S113024061E081E00E9411010E94530240E061E0FC
S113025080E00E94110140E061E081E00E94110110
S11302600E945302809161008F5F809361008091AE
S113027061008530F8F210926100089513C041E0E6
S113028061E081E00E9411010E94530240E061E0BC
S113029081E00E9411010E945302809160008F5FEF
S11302A08093600080916000853048F31092600074
S11302B00895813011F130F08230D1F1833009F4A6
S11302C052C06CC0413061F42BB381E090E002C0B5
S11302D0880F991F6A95E2F7822B8BBB81E0089502
S11302E02BB381E090E002C0880F991F6A95E2F772
S11302F0809582238BBB80E00895413061F428B35C
S113030081E090E002C0880F991F6A95E2F7822B82
S113031088BB81E0089528B381E090E002C0880F93
S1130320991F6A95E2F78095822388BB80E008953F
S1130330413061F425B381E090E002C0880F991F39
S11303406A95E2F7822B85BB81E0089525B381E0AD
S113035090E002C0880F991F6A95E2F78095822386
S113036085BB80E00895413061F422B381E090E0E0
S113037002C0880F991F6A95E2F7822B82BB81E045
S1130380089522B381E090E002C0880F991F6A9516
S1130390E2F78095822382BB80E00895089581303E
S11303A0E1F030F0823071F1833009F440C053C081
S11303B049B381E090E09C01062E02C0220F331F56
S11303C00A94E2F7842F90E08223932302C0959548
S11303D087956A95E2F7982F3EC046B381E090E096
S11303E09C01062E02C0220F331F0A94E2F7842FC9
S11303F090E08223932302C0959587956A95E2F74E
S1130400982F29C043B381E090E09C01062E02C0DE
S1130410220F331F0A94E2F7842F90E08223932360
S113042002C0959587956A95E2F7982F14C040B35A
S113043081E090E09C01062E02C0220F331F0A9433
S1130440E2F7842F90E08223932302C09595879549
S11304506A95E2F7982F892F089584B3826084BB4C
S11304600E943F020E944F0285B3826085BB0E94B6
S1130470530285B38D7F85BB0E945302F5CF83B7AA
S11304808F7B83BF83B7877F83BF83B7816083BF3D
S113049083B7846083BF8CE082BF81E008958FB707
S11304A080688FBF089509C008B600FE06C08F5F3C
S11304B08093620088B7816088BF80916200823037
S11304C098F3109262008CE082BF0895F894FFCFF5
S9030000FC
